:1000000092EF00F00000000000EF00F000000000A0
:0A0010000000000000000000F3D71C
:10001C00156A800E006E800E1718005C02E11650F7
:10002C00155C21E2020E836E0B0E0B6E260E0C6E0F
:10003C005D0E0D6E0D2EFED70C2EFCD70B2EFAD7A7
:10004C0000000000836A0B0E0B6E260E0C6E5D0E0C
:10005C000D6E0D2EFED70C2EFCD70B2EFAD70000F2
:08006C000000152AD6D712008E
:10007400156A800E006E800E1718005C02E116509F
:10008400155C21E20C0E836E0B0E0B6E260E0C6EAD
:100094005D0E0D6E0D2EFED70C2EFCD70B2EFAD74F
:1000A40000000000836A0B0E0B6E260E0C6E5D0EB4
:1000B4000D6E0D2EFED70C2EFCD70B2EFAD700009A
:0800C4000000152AD6D7120036
:1000CC00156A800E006E800E1718005C02E1165047
:1000DC00155C21E2010E836E0B0E0B6E260E0C6E60
:1000EC005D0E0D6E0D2EFED70C2EFCD70B2EFAD7F7
:1000FC0000000000836A0B0E0B6E260E0C6E5D0E5C
:10010C000D6E0D2EFED70C2EFCD70B2EFAD7000041
:08011C000000152AD6D71200DD
:10012400956A836A140E166E000E176ECDDF1F0ECD
:100134000B6E710E0C6E1E0E0D6E0D2EFED70C2E58
:10014400FCD70B2EFAD700000A0E166E000E176E9F
:1001540063DF330E0B6EBB0E0C6EDF0E0D6E0D2EB9
:10016400FED70C2EFCD70B2EFAD7000000000F0E82
:10017400166E000E176E7CDF3D0E0B6EE10E0C6EDC
:100184003F0E0D6E0D2EFED70C2EFCD70B2EFAD77C
:0801940000000000C7D7FFD7EF
:020000040030CA
:0E000000000C1F1EFF8381FF0FC00FE00F409A
:00000001FF
