:100000000EEF00F00000000000EF00F00000000024
:0A0010000000000000000000F3D71C
:10001C00010E936E956AC26A0F0EC16E81B020D02C
:10002C00050E836E030E0B6E8A0E0C6E550E0D6E46
:10003C000D2EFED70C2EFCD70B2EFAD7000000008D
:10004C00836A030E0B6E8A0E0C6E550E0D6E0D2E02
:10005C00FED70C2EFCD70B2EFAD70000000020D0B8
:10006C00080E836E060E0B6E130E0C6EAD0E0D6E1F
:10007C000D2EFED70C2EFCD70B2EFAD7000000004D
:10008C00020E836E060E0B6E130E0C6EAD0E0D6E05
:10009C000D2EFED70C2EFCD70B2EFAD7000000002D
:0400AC00BDD7FFD7E6
:020000040030CA
:0E000000000C1F1EFF8381FF0FC00FE00F409A
:00000001FF
