:100000000EEF00F00000000000EF00F00000000024
:0A0010000000000000000000F3D71C
:10001C00010E936E956AC26A0F0EC16E81B010D03C
:10002C0083800B0E0B6E260E0C6E5D0E0D6E0D2E60
:10003C00FED70C2EFCD70B2EFAD7000000008390B5
:10004C0083820B0E0B6E260E0C6E5D0E0D6E0D2E3E
:10005C00FED70C2EFCD70B2EFAD700000000839293
:10006C000B0E0B6E260E0C6E5D0E0D6E0D2EFED74E
:10007C000C2EFCD70B2EFAD70000000083840B0E3D
:10008C000B6E260E0C6E5D0E0D6E0D2EFED70C2E0D
:10009C00FCD70B2EFAD70000000083940B0E0B6ECE
:1000AC00260E0C6E5D0E0D6E0D2EFED70C2EFCD793
:1000BC000B2EFAD70000000083860B0E0B6E260E5B
:1000CC000C6E5D0E0D6E0D2EFED70C2EFCD70B2E6E
:1000DC00FAD70000000083960B0E0B6E260E0C6EEA
:1000EC005D0E0D6E0D2EFED70C2EFCD70B2EFAD7F7
:0800FC000000000093D7FFD7BC
:020000040030CA
:0E000000000C1F1EFF8381FF0FC00FE00F409A
:00000001FF
