:100000000EEF00F00000000000EF00F00000000024
:0A0010000000000000000000F3D71C
:10001C00956A156A140E155C21E2090E836E060EA4
:10002C000B6E130E0C6EAD0E0D6E0D2EFED70C2E30
:10003C00FCD70B2EFAD700000000836A060E0B6E5D
:10004C00130E0C6EAD0E0D6E0D2EFED70C2EFCD7B6
:10005C000B2EFAD700000000152ADCD7150E0B6EFC
:10006C004B0E0C6EBE0E0D6E0D2EFED70C2EFCD74D
:10007C000B2EFAD70000156A1E0E155C21E2060E37
:10008C00836E030E0B6E8A0E0C6E550E0D6E0D2EBE
:10009C00FED70C2EFCD70B2EFAD700000000836A7B
:1000AC00030E0B6E8A0E0C6E550E0D6E0D2EFED7BA
:1000BC000C2EFCD70B2EFAD700000000152ADCD72B
:1000CC00330E0B6EBB0E0C6EDF0E0D6E0D2EFED7AF
:1000DC000C2EFCD70B2EFAD7000000009AD7FFD7B6
:020000040030CA
:0E000000000C1F1EFF8381FF0FC00FE00F409A
:00000001FF
