:100000000EEF00F00000000000EF00F00000000024
:0A0010000000000000000000F3D71C
:10001C00936A8A6A8A6A060E0B6E130E0C6EAD0E0C
:10002C000D6E0D2EFED70C2EFCD70B2EFAD7000022
:10003C000000010E8A6E060E0B6E130E0C6EAD0ECA
:10004C000D6E0D2EFED70C2EFCD70B2EFAD7000002
:10005C000000020E8A6E060E0B6E130E0C6EAD0EA9
:10006C000D6E0D2EFED70C2EFCD70B2EFAD70000E2
:06007C000000D0D7FFD701
:020000040030CA
:0E000000000C1F1EFF8381FF0FC00FE00F409A
:00000001FF
