:100000000EEF00F00000000000EF00F00000000024
:0A0010000000000000000000F3D71C
:10001C009390156A030E155C1EE28180020E0B6E26
:10002C00040E0C6EBA0E0D6E0D2EFED70C2EFCD7D8
:10003C000B2EFAD700008190020E0B6E040E0C6E84
:10004C00BA0E0D6E0D2EFED70C2EFCD70B2EFAD73A
:10005C000000152ADFD7050E0B6E0F0E0C6EF10E7D
:10006C000D6E0D2EFED70C2EFCD70B2EFAD7156A63
:10007C00030E155C1CE28180030E0B6E080E0C6ED9
:10008C00770E0D6E0D2EFED70C2EFCD70B2EFAD73D
:10009C008190030E0B6E080E0C6E770E0D6E0D2EEE
:1000AC00FED70C2EFCD70B2EFAD7152AE1D7050E4E
:1000BC000B6E0F0E0C6EF10E0D6E0D2EFED70C2E60
:1000CC00FCD70B2EFAD7156A030E155C1EE2818045
:1000DC00020E0B6E040E0C6EBA0E0D6E0D2EFED7AC
:1000EC000C2EFCD70B2EFAD700008190020E0B6E53
:1000FC00040E0C6EBA0E0D6E0D2EFED70C2EFCD708
:10010C000B2EFAD70000152ADFD7100E0B6E390E06
:10011C000C6E0D0E0D6E0D2EFED70C2EFCD70B2E6D
:0A012C00FAD70000000075D7FFD7D6
:020000040030CA
:0E000000000C1F1EFF8381FF0FC00FE00F409A
:00000001FF
