:020000001929BC
:0E000600213083120313FD00FD0B07280800B4
:100014000F3083120313FC004730FD00FD0B102842
:0A002400FC0B10280000000008008B
:06002E00000000000800C4
:1000340083120313B61B2028881321288817361B24
:100044002528081326280817B61A2A2888122B28C8
:100054008816361A2F280812302808162E18342825
:10006400091535280911891417208910B6193C2857
:1000740088133D2888173619412808134228081781
:10008400B618462888124728881636184B280812AE
:100094004C2808162E1850280915512809118914BE
:1000A400172089102E1C58280A20592803200800DC
:0E00B4008312031330088A002F088200080010
:1000C200831203132E103508B6001A202E140800CE
:1000D2007B28803083120313B1008E28C030B10018
:1000E2008E289430B1008E28D430B1008E28803012
:1000F200B1008E28831203133108013A03196A28CA
:100102003108023A03196F283108033A0319722899
:100112003108043A0319752878283203F0003108AF
:10012200F0077008B1007008B6001A202E10B40152
:1001320034083307840000080319A728340833075A
:1001420084000008B5006120B40A99282E14080022
:10015200831203133108F2007208F000F20A7008E9
:10016200840000080319B628AD2831087202F00095
:0C0172000130F002F101031CF103080051
:10017E005A208A110A128000840AAF0A0319B00AA3
:08018E00F003031DBF28080067
:10019600831603138910091108128812081388138D
:1001A60083128910091188130813881208120A206D
:1001B6000A200A20881608168914172089100A2092
:1001C6008914172089100A208914172089100A20FB
:1001D60008128914172089100A20891417208910FB
:1001E600881288178914172089100A208813081680
:1001F60089141720891008128914172089100A20DB
:1002060089141720891008168914172089100A20C6
:1002160008128914172089108817081788160816D7
:0C0226008914172089100A202E140800EB
:10023200423083120313A0007230A1006130A20089
:100242007330A3006930A4006C30A500A6014230CF
:10025200A7007230A8006130A9007330AA0069308B
:10026200AB006C30AC00AD0183168801890103300C
:100272008600CB200C30B6001A202730B100A9200E
:100282007008103CF3007108031C013EF401F402F3
:100292007308F0007408F100F10CF00CF113711BFB
:1002A200F117F11F5929031C5929F00A0319F10A00
:1002B2007008B2000130B1002030B3006920061C82
:1002C20072291C30B6001A200330FB000830FC00F3
:1002D2007730FD00FD0B6B29FC0B6B29FB0B6B29A7
:1002E2008329861C83291830B6001A200330FB00AC
:1002F2000830FC007730FD00FD0B7D29FC0B7D29C9
:08030200FB0B7D296029842911
:02400E004A2F37
:00000001FF
