:1000000016EF00F00000000000EF00F0000000001C
:0A0010000000000000000000F3D71C
:10001C000900F5CFE6FF0006FBE10106F9E112004D
:10002C00156A166A9590FF0E936EC26A0F0EC16E1A
:10003C0081B004D0100E156E270E166E81B20AD048
:10004C00000E006E1650005C02E11550000802E232
:10005C00156A166A000E006E1650005C02E115500F
:10006C00000813E28380020E0B6E040E0C6EBA0EA7
:10007C000D6E0D2EFED70C2EFCD70B2EFAD70000D2
:10008C00640E155E000E165A01D08390D1D7FFD79F
:020000040030CA
:0E000000000C1F1EFF8381FF0FC00FE00F409A
:00000001FF
