:1000000045EF00F00000000000EF00F000000000ED
:0A0010000000000000000000F3D71C
:10001C001E0E1B24F66E010EF76E000EF722000E5C
:10002C00F86E000EF8220900F5CF83FF1CC080FF8C
:10003C00030E0C6E970E0D6E0D2EFED70C2EFCD7EC
:08004C0000000000806A1200B0
:10005400086A096A100E0C6E013408360936045019
:10006400085E0550D8A0053C095ED8B007D00450FE
:1000740008260550D8B0053C0926D890003601362C
:060084000C2EEAD7120069
:10008A007B0E176E000E186E956A926AC26A0F0E80
:10009A00C16E640E046E000E056E17C000F018C023
:1000AA0001F0D3DF00C019F001C01AF00A0E046E85
:1000BA00000E056E17C000F018C001F0C6DF0A0E68
:1000CA00046E000E056EC1DF08C000F009C001F021
:1000DA0000C015F00A0E046E000E056E17C000F07F
:1000EA0018C001F0B2DF08C000F009C001F000C07A
:1000FA0016F019C01BF0080E1C6E8BDF15C01BF022
:10010A00100E1C6E86DF16C01BF0200E1C6E81DFDF
:04011A00C0D7FFD774
:0A011E003F065B4F762D7D077F67DB
:020000040030CA
:0E000000000C1F1EFF8381FF0FC00FE00F409A
:00000001FF
