:100000000EEF00F00000000000EF00F00000000024
:0A0010000000000000000000F3D71C
:10001C0093809382956A0F0EC16E8392839483961C
:10002C008398839A839C839E83800B0E0B6E260E83
:10003C000C6E5D0E0D6E0D2EFED70C2EFCD70B2EFE
:10004C00FAD70000000083700B0E0B6E260E0C6EA0
:10005C005D0E0D6E0D2EFED70C2EFCD70B2EFAD787
:08006C0000000000DAD7FFD705
:020000040030CA
:0E000000000C1F1EFF8381FF0FC00FE00F409A
:00000001FF
