:100000000EEF00F00000000000EF00F00000000024
:0A0010000000000000000000F3D71C
:10001C00936A956AC26A0F0EC16E836A800E816EF6
:10002C00060E0B6E130E0C6EAD0E0D6E0D2EFED756
:10003C000C2EFCD70B2EFAD70000000081CF00F05D
:10004C000032009E00C081FF060E0B6E130E0C6E6C
:10005C00AD0E0D6E0D2EFED70C2EFCD70B2EFAD737
:10006C000000000081CF00F00032009E00C081FF34
:10007C00060E0B6E130E0C6EAD0E0D6E0D2EFED706
:10008C000C2EFCD70B2EFAD70000000081CF00F00D
:10009C000032009E00C081FF060E0B6E130E0C6E1C
:1000AC00AD0E0D6E0D2EFED70C2EFCD70B2EFAD7E7
:1000BC000000000081CF00F00032009E00C081FFE4
:1000CC00060E0B6E130E0C6EAD0E0D6E0D2EFED7B6
:1000DC000C2EFCD70B2EFAD70000000081CF00F0BD
:1000EC000032009E00C081FF060E0B6E130E0C6ECC
:1000FC00AD0E0D6E0D2EFED70C2EFCD70B2EFAD797
:10010C000000000081CF00F00032009E00C081FF93
:10011C00060E0B6E130E0C6EAD0E0D6E0D2EFED765
:10012C000C2EFCD70B2EFAD70000000076D7FFD789
:020000040030CA
:0E000000000C1F1EFF8381FF0FC00FE00F409A
:00000001FF
