:020000000328D3
:1000060083160313850186018312051204308600C8
:100016001A30FC00F830FD00FD0B0F28FC0B0F28F2
:10002600000005161A30FC00F830FD00FD0B1928FB
:10003600FC0B192800008511053086001A30FC00DB
:10004600F830FD00FD0B2528FC0B25280000851542
:100056001A30FC00F830FD00FD0B2F28FC0B2F2872
:1000660000000511073086001A30FC00F830FD004C
:10007600FD0B3B28FC0B3B28000005151A30FC0045
:10008600F830FD00FD0B4528FC0B4528000007282D
:020096004B28F5
:02400E006A2125
:00000001FF
