:1000000016EF00F00000000000EF00F0000000001C
:0A0010000000000000000000F3D71C
:10001C000900F5CFE6FF0006FBE10106F9E112004D
:10002C00390E156E5E0E166E790E176E710E186EF9
:10003C003F0E196E060E1A6E5B0E1B6E4F0E1C6E6B
:10004C00660E1D6E6D0E1E6E956A929A1F6A0A0ED2
:10005C001F5C23E2040E1F5C04E31F50080801E33D
:10006C001AD0150EE96E000EEA6E1F50E926D8B0B4
:10007C00EA2AEECF83FF808A0B0E0B6E260E0C6ED7
:10008C005D0E0D6E0D2EFED70C2EFCD70B2EFAD757
:0E009C0000000000808A1F2ADAD7D8D7FFD7CD
:020000040030CA
:0E000000000C1F1EFF8381FF0FC00FE00F409A
:00000001FF
