:02000000462890
:0E0006008312031322088A00210882000800DA
:100014000E3083120313FD00FD0B0E2800000800B0
:10002400831203139F01C0309F042009F00070085D
:1000340083169F051F179F1783122508F000F00DE4
:100044007010F00D7010F00D701070089F041F14E4
:100054000A201F151F1D302800002C281F101E0801
:10006400F100F00183161E08F0040030F1040800CA
:1000740003208A110A128000840AA10A0319A20A21
:08008400F003031D3A280800F7
:10008C008420831603139F0101308500880183129D
:10009C008801A501122070088312A3007108A40026
:1000AC007108F2000030F11BFF30F3007208880079
:1000BC003330FB00BB30FC00DF30FD00FD0B64284F
:1000CC00FC0B6428FB0B642800000000230888004C
:1000DC003330FB00BB30FC00DF30FD00FD0B74281F
:1000EC00FC0B7428FB0B7428000000004F287D28A3
:1001080020308400013083120313F0008330A100F3
:080118000030A2003A200800AB
:020106000F34B4
:02400E004A2F37
:00000001FF
