:100000000EEF00F00000000000EF00F00000000024
:0A0010000000000000000000F3D71C
:10001C00010E936E956AC26A0F0EC16E81A03AD022
:10002C00156A166A800E1618006E800E005C02E1CE
:10003C00020E155C20E20F0E836E1A0E0B6E5E0E16
:10004C000C6E6E0E0D6E0D2EFED70C2EFCD70B2EDD
:10005C00FAD70000836A1A0E0B6E5E0E0C6E6E0ED3
:10006C000D6E0D2EFED70C2EFCD70B2EFAD70000E2
:10007C00154A162AD7D7330E0B6EBB0E0C6EDF0E3D
:10008C000D6E0D2EFED70C2EFCD70B2EFAD70000C2
:10009C0000005AD0156A166A800E1618006E800E73
:1000AC00005C02E1020E155C23E2838083860B0E5A
:1000BC000B6E260E0C6E5D0E0D6E0D2EFED70C2EDD
:1000CC00FCD70B2EFAD700000000839083960B0E02
:1000DC000B6E260E0C6E5D0E0D6E0D2EFED70C2EBD
:1000EC00FCD70B2EFAD700000000154A162AD4D7DD
:1000FC00156A166A800E1618006E800E005C02E1FE
:10010C00030E155C21E283828394150E0B6E4B0E4D
:10011C000C6EBE0E0D6E0D2EFED70C2EFCD70B2EBC
:10012C00FAD7000083928384150E0B6E4B0E0C6E67
:10013C00BE0E0D6E0D2EFED70C2EFCD70B2EFAD745
:0C014C000000154A162AD6D769D7FFD745
:020000040030CA
:0E000000000C1F1EFF8381FF0FC00FE00F409A
:00000001FF
