:100000000EEF00F00000000000EF00F00000000024
:0A0010000000000000000000F3D71C
:10001C00956A9380C26A0F0EC16E81B021D0838025
:10002C0083920B0E0B6E260E0C6E5D0E0D6E0D2E4E
:10003C00FED70C2EFCD70B2EFAD7000000008390B5
:10004C0083820B0E0B6E260E0C6E5D0E0D6E0D2E3E
:10005C00FED70C2EFCD70B2EFAD700000000DDD7F4
:10006C0083840B0E0B6E260E0C6E5D0E0D6E0D2E1C
:10007C00FED70C2EFCD70B2EFAD700000000839471
:10008C0083860B0E0B6E260E0C6E5D0E0D6E0D2EFA
:10009C00FED70C2EFCD70B2EFAD70000000083964F
:0400AC00BCD7FFD7E7
:020000040030CA
:0E000000000C1F1EFF8381FF0FC00FE00F409A
:00000001FF
