:100000000EEF00F00000000000EF00F00000000024
:0A0010000000000000000000F3D71C
:10001C00956A836A156A0C0E155C20E283800B0EC0
:10002C000B6E260E0C6E5D0E0D6E0D2EFED70C2E6D
:10003C00FCD70B2EFAD70000000083900B0E0B6E32
:10004C00260E0C6E5D0E0D6E0D2EFED70C2EFCD7F3
:10005C000B2EFAD700000000152ADDD71F0E0B6EF1
:10006C00710E0C6E1E0E0D6E0D2EFED70C2EFCD7C7
:0A007C000B2EFAD70000CED7FFD7F5
:020000040030CA
:0E000000000C1F1EFF8381FF0FC00FE00F409A
:00000001FF
