:02000000512A83
:0E000600213083120313FD00FD0B07280800B4
:100014000F3083120313FC004730FD00FD0B102842
:0A002400FC0B10280000000008008B
:06002E00000000000800C4
:1000340083120313CD1B20288813212888174D1BF6
:100044002528081326280817CD1A2A2888122B28B1
:1000540088164D1A2F280812302808162E1834280E
:10006400091535280911891417208910CD193C2840
:1000740088133D2888174D1941280813422808176A
:10008400CD1846288812472888164D184B28081280
:100094004C2808162E1850280915512809118914BE
:1000A400172089102E1C58280A20592803200800DC
:1000B400831203132E104C08CD001A202E140800AE
:1000C400710DF80DF90D7408F8027508031C750F0D
:1000D400F902F00DF10D0F30FC00710DF80DF90D62
:1000E4007408701C7B28F8027508031C750FF9024C
:1000F4008028F80775080318750FF907F00DF10D3E
:10010400FC0B6F2870188C287408F80775080318FE
:08011400750FF9070000080057
:10011C0083120313FB01FA01F9018030F800F10C92
:10012C00F00C031CA2287408F90775080318750F46
:10013C00FA070318FB0A0310F01FAA287408FA0721
:10014C0075080318750FFB07FB0CFA0CF90CF80C6F
:10015C00031C95287B08F3007A08F2007908F1005B
:06016C007808F000080015
:0E0172008312031330088A002F088200080051
:10018000831203137408003A031DCF287508003A40
:10019000031DCF28FF30F0007F30F10028298312A3
:1001A0000313FD01F901F80171087004031900340B
:1001B00071087506FA00FA1BFD09FB01F51FE52819
:1001C000F409F509F40A0319F50AF11FEC28F009FE
:1001D000F109F00A0319F10A71087504FA00FA1B13
:1001E000012962207B181429FD1F0034F009F10950
:1001F000F00A0319F10AF809F909F80A0319F90ACA
:100200000034F51F1029F11B0C297108F900700842
:10021000F800F101F001F428F101F001F00A0034D6
:10022000F109F009FB0AF128F80A0319F90A740820
:100230007802031DF42875087902031DF428F901DA
:10024000F801F00A0319F10AF11FF4280000FF3445
:020250000800A4
:100252003B29803083120313C8004E29C030C800E6
:100262004E299430C8004E29D430C8004E2980301F
:10027200C8004E29831203134808013A03192A2998
:100282004808023A03192F294808033A0319322968
:100292004808043A0319352938294903F000480867
:1002A200F0077008C8007008CD001A202E10CB018C
:1002B2004B084A0784000008031967294B084A07BC
:1002C20084000008CC005A20CB0A59292E140800B9
:1002D200831603131208013EF000F1010318F10A1C
:1002E20083123308F400F5018E200630F200700804
:1002F200F4007108F500720803198429F50CF40C56
:10030200F513FF3E7D290430F1007408F0007108F6
:1003120003198F29F00D7010FF3E892930307005C6
:10032200F3007408F0007508F100F10CF00CF11301
:10033200F10CF00CF113700895000F30970573085B
:040342009704080014
:1003460083160313891009110812881208138813DB
:1003560083128910091188130813881208120A20BB
:100366000A200A20881608168914172089100A20E0
:100376008914172089100A208914172089100A2049
:1003860008128914172089100A2089141720891049
:10039600881288178914172089100A2088130816CE
:1003A60089141720891008128914172089100A2029
:1003B60089141720891008168914172089100A2015
:1003C6000812891417208910881708178816081626
:0C03D6008914172089100A202E1408003A
:1003E200831203133308F0003408F1006430F40080
:1003F2000030F5008E20FF30F400F501C0207008B7
:10040200C6007108C7005630B5006130B6006C30C6
:10041200B7006F30B8007230B9003A30BA002030FD
:10042200BB000A30F4000030F5004608F00047082F
:10043200F100C02030307007BC000A30F4000030F8
:10044200F5004608F0004708F100C0207808F000E7
:100452007908F10030307007BD002530BE00203031
:10046200BF002030C0002030C100C2010230C800ED
:0C0472000130C9003530CA002921080003
:0C047E0083120313950117129712080057
:10048A00B9208A110A128000840AAF0A0319B00A35
:08049A00F003031D452A0800D0
:1004A200523083120313A0006130A1007A30A200FF
:1004B2006130A3006F30A4002030A5004330A600B5
:1004C2006930A7006330A8006C30A9006930AA0027
:1004D2006330AB006130AC00AD018316870103309D
:1004E2008600831212149214F930831692003F226E
:1004F200A3210130C8000130C9002030CA002921DF
:100502000618AB2A3330B1000030B2008030F00060
:10051200803032067002031D902A3108FF3C031C12
:10052200AB2A3108B30069213108B3003208B400A4
:10053200F1210230FB000430FC00BA30FD00FD0B5B
:10054200A02AFC0BA02AFB0BA02A0000B10A031967
:10055200B20A872A8618D52AFF30B100B20180304C
:100562003206F00080307002031DB92A00303102D9
:10057200031CD52A3108B30069213108B3003208BF
:10058200B400F1210230FB000430FC00BA30FD005F
:10059200FD0BC92AFC0BC92AFB0BC92A0000023039
:0C05A200B102031CB203B02A812AD62A41
:02400E004A2F37
:00000001FF
