:1000000052EF00F00000000000EF00F000000000E0
:0A0010000000000000000000F3D71C
:10001C00036A046A800E0418006E800E1A18005CC5
:10002C0002E11950035C37E215C000F0010E026EBC
:10003C00005004E002360290FF0FFBD717C001F00E
:10004C00010E006E015004E000360090FF0FFBD74C
:10005C0000500210836E060E0B6E130E0C6EAD0E5E
:10006C000D6E0D2EFED70C2EFCD70B2EFAD70000E2
:10007C000000836A060E0B6E130E0C6EAD0E0D6E29
:10008C000D2EFED70C2EFCD70B2EFAD7000000003D
:08009C00034A042ABFD7120039
:1000A400956A836A156A166A030E176E000E186E37
:1000B400140E196E000E1A6EAFDF330E0B6EBB0EEC
:1000C4000C6EDF0E0D6E0D2EFED70C2EFCD70B2EF4
:1000D400FAD700000000010E156E000E166E020E17
:1000E400176E000E186E1E0E196E000E1A6E94DF37
:1000F400330E0B6EBB0E0C6EDF0E0D6E0D2EFED787
:100104000C2EFCD70B2EFAD700000000CBD7FFD75C
:020000040030CA
:0E000000000C1F1EFF8381FF0FC00FE00F409A
:00000001FF
