:100000000EEF00F00000000000EF00F00000000024
:0A0010000000000000000000F3D71C
:10001C00006A016A938093829490956AC26A0F0E6B
:10002C00C16E00C083FF004A012A060E0B6E130E30
:10003C000C6EAD0E0D6E0D2EFED70C2EFCD70B2EAE
:10004C00FAD70000000081B002D0828001D08290EB
:10005C0081B202D0D88001D0D89082B003D002E215
:0A006C00829001D08280DDD7FFD71B
:020000040030CA
:0E000000000C1F1EFF8381FF0FC00FE00F409A
:00000001FF
